:100000000C9434000C9451000C9451000C94510049
:100010000C9451000C9451000C9451000C9451001C
:100020000C9451000C9451000C9453000C947204E5
:100030000C9451000C9451000C9451000C945100FC
:100040000C9451000C9451000C9451000C945100EC
:100050000C9451000C9451000C9451000C945100DC
:100060000C9451000C94510011241FBECFEFD8E026
:10007000DEBFCDBF12E0A0E0B1E0EEE9F1E102C0E9
:1000800005900D92A634B107D9F712E0A6E4B2E0CC
:1000900001C01D92AD3AB107E1F70E94EC000C944B
:1000A000CD080C9400001F920F920FB60F921124EE
:1000B0002F933F934F935F936F937F938F939F9370
:1000C000AF93BF93CF93DF93EF93FF93299A8091E0
:1000D00086009091870090934D0280934C0220916E
:1000E000480230914902AC01421B530B9A015093D4
:1000F0004B0240934A0290934902809348028091B8
:100100004602803108F050C057E12137350754F0DE
:100110001092460210920101809147028F5F8093F6
:10012000470246C080910101882309F041C0C901FE
:100130009595879590934B0280934A02815D9740F5
:1001400034F080ED97E090934B0280934A028091C7
:100150004A0290914B02885E934034F488EE93E01B
:1001600090934B0280934A0280914602C82FD0E0C0
:1001700060914A0270914B02882777FD8095982FF5
:1001800024E130E040E050E00E94C507605375472D
:10019000CC0FDD1FCE57DD4F7983688380914602F7
:1001A0008F5F8093460204C01092460210920101B4
:1001B0002998FF91EF91DF91CF91BF91AF919F91DE
:1001C0008F917F916F915F914F913F912F910F9000
:1001D0000FBE0F901F90189580E390E2A0E1B0E071
:1001E0008093A6029093A702A093A802B093A902BD
:1001F00088E08093A50286E08093AA0215B8209833
:10020000219A229A239A2498259A18B83D98459ABB
:100210003B9A1BB85098519A529A539A549A559AAD
:1002200081E58CBD82E88093810080E280936F003D
:100230007894809147028531E0F3809181008F7737
:100240008093810020919002309191023093A3021B
:100250002093A20249ED293B34071CF410920201BD
:100260005B9AC90188539F4F8159914020F481E0E6
:10027000809302015C9A2854364224F082E08093F5
:1002800002015A9A80910201823019F40E942506D7
:100290005D9A80910201823050F4359B05C082E066
:1002A0000E94E3025D9A03C080E00E94E302809115
:1002B00000018823E1F75D9881E08093010180913E
:1002C0008600909187009093490280934802809124
:1002D0008100806880938100FFCFEF92FF920F939F
:1002E0001F93CF93DF93882311F485E501C08AEA39
:1002F0008093550280914E0290914F02A09150023E
:10030000B091510280935602292F3A2F4B2F552737
:10031000209357029D0144275527209358028B2F85
:100320009927AA27BB27809359028091A502E82E1E
:10033000FF24CAE5D2E000E010E0E016F1061CF46C
:100340001882198229C0F801EE0FFF1FEE57FD4FEA
:1003500060817181882777FD8095982F21EF31E0AA
:1003600040E050E00E94C50720E137E240E050E065
:100370000E941A0827523A4F4F4F5F4F57FF04C051
:1003800020E030E040E050E02883BB2757FDBA95DD
:10039000A52F942F832F89830F5F1F4F229608303C
:1003A000110559F680910201813021F580918A0270
:1003B00090918B02815991402CF080916102806272
:1003C0008093610280918C0290918D0281599140BD
:1003D0002CF080915F02806480935F0280918E0296
:1003E00090918F02815991402CF080915F0280683A
:1003F00080935F02DF91CF911F910F91FF90EF905B
:100400000895DF92EF92FF920F931F93CF93DF93A4
:10041000D82E0E9468040E94D4036AE275EC85E736
:1004200094E50E946903C0E0D0E0FE01ED5FFE4F5D
:1004300060816F3F19F08C2F0E9495032196C33382
:10044000D10599F780EA0E94620382E061E00E9490
:10045000950382E00E940F0482E00E940F0488232B
:10046000D9F782E20E940F0484E263E10E949503BF
:1004700086E26BE30E9495038FE060E00E949503A3
:1004800082E062E00E94950382E00E940F048823CC
:10049000D9F785E20E940F048FE060EA0E9495037D
:1004A00082E062E00E94950382E00E940F048823AC
:1004B000D9F785E20E940F0485E268E00E94950367
:1004C00080EA0E9462038091A6029091A702A09107
:1004D000A802B091A9020097A105B10549F0809347
:1004E0004E0290934F02A0935002B093510224C049
:1004F00085EA92E046E050E060E070E00E94B404DB
:100500007B018C0184EA92E041E050E060E070E021
:100510000E94B4046E0D7F1D801F911F2FE332E4F3
:100520004FE050E00E94F80760934E0270934F0234
:10053000809350029093510280914E0290914F020D
:10054000A0915002B0915102282F2F702093520297
:10055000109253029070A070B07054E0B695A795B9
:10056000979587955A95D1F780935402DD2061F4D1
:100570008091A6029091A702A091A802B091A90231
:100580000097A105B10569F484EC99E090936B02A2
:1005900080936A026DE270E080E090E00E94520475
:1005A00004C010926B0210926A0280E699E061E149
:1005B00073E00E945304DF91CF911F910F91FF9040
:1005C000EF90DF9008958330A9F0843028F48823D9
:1005D00059F0823061F41FC0863018F08A3039F447
:1005E0001CC028E030E01BC080E00E94010220E037
:1005F00030E015C020E030E08091A6029091A70283
:10060000A091A802B091A9020097A105B10539F403
:1006100021E030E004C081E0E8CF2FEF3FEFC901D7
:1006200008952A9A80916A0290916B02892BD9F0E1
:1006300081E00E946D0185E592E065E141E00E9464
:10064000D90380916A0290916B02019790936B029B
:1006500080936A02892B91F560E070E080E090E081
:100660000E9452042BC01092000180E00E946D0194
:1006700080915302E0915202F0E064E0EE0FFF1F20
:100680006A95E1F7E80FF11DEA5CFE4F4081809129
:100690005402481B85E592E065E10E94D9038091F0
:1006A000530290E001968F709070809353028823DC
:1006B00029F48091AA0290E00E94A4032A9884EB76
:1006C00095E00895682F439882E00E940B05439AB5
:1006D0000895EF92FF920F931F937B018C01439833
:1006E00082E066E00E940B05212F3327442755271F
:1006F00082E0622F0E940B0598014427552782E073
:10070000622F0E940B055527412F302F2F2D82E09D
:10071000622F0E940B0582E06E2D0E940B05439A0A
:100720001F910F91FF90EF9008951F93982F162F10
:10073000439882E0692F0E940B0582E0612F0E949E
:100740000B05439A1F91089584309105F1F085308F
:1007500091054CF48230910591F08330910594F429
:10076000019751F406C08530910591F0089724F463
:1007700011C060E081E010C060E080E00DC060E08A
:1007800082E00AC060E084E007C061E085E004C068
:1007900062E001C063E087E0660F660F660F682BBA
:1007A00088E20E949503089580E060E00E9495032E
:1007B0000895DF92EF92FF920F931F93CF93DF93F1
:1007C0007C01162FD42E439882E060EE0E940B0528
:1007D00082E065E00E940B05C0E0D0E0012F10E050
:1007E00008C0F701EC0FFD1F82E060810E940B053D
:1007F0002196C017D107ACF3439A8FE06D2D0E946C
:100800009503439882E060ED0E940B05439ADF91C7
:10081000CF911F910F91FF90EF90DF9008951F935C
:100820004398682F606482E00E940B0582E00E947A
:10083000020582E00E94030582E00E94010582E039
:100840000E94020582E00E940505182F439A82E06B
:100850000E94040582E00E940105812F1F910895E6
:10086000EF92FF920F931F93CF93DF937C01162F8C
:1008700080EF0E946203C0E0D0E0012F10E008C0CA
:1008800085E00E940F04F701EC0FFD1F8083219685
:10089000C017D107ACF3DF91CF911F910F91FF905B
:1008A000EF9008950895282F6115710581F07093D8
:1008B000AC026093AB028091840090918500220F7E
:1008C000280F27BD80916F00826080936F0008958C
:1008D000EFE6F0E080818D7F80831092AC02109271
:1008E000AB0208951F920F920FB60F9211242F930F
:1008F0003F934F935F936F937F938F939F93AF93A8
:10090000BF93EF93FF93E091AB02F091AC0230976D
:1009100089F009959C01009769F080918800909179
:100920008900220F331F820F931F909389008093B9
:10093000880009C080916F008D7F80936F001092B6
:10094000AC021092AB02FF91EF91BF91AF919F91DA
:100950008F917F916F915F914F913F912F910F9068
:100960000FBE0F901F901895EF92FF920F931F9359
:10097000CF93DF937A018B01EC012FEF3FEF4FEF25
:100980005FEF2DC0888190E0A0E0B0E028273927F4
:100990004A275B27E0E0F0E0DA01C901B695A795A8
:1009A00097958795217030704070507050954095A4
:1009B000309521953F4F4F4F5F4F20723378487BE2
:1009C0005D7E282739274A275B273196E830F105D5
:1009D00019F721960894E108F10801091109E114B9
:1009E000F1040105110571F620953095409550955B
:1009F000B901CA01DF91CF911F910F91FF90EF9044
:100A0000089508950895089508951EBC0DB407FE35
:100A1000FDCF8EB508956EBD0DB407FEFDCF80E00D
:100A20000895ECE6F2E020E030E08191280F311DDE
:100A300082E0EB37F807C9F7822F8195808308950C
:100A40004F925F926F927F928F929F92AF92BF92DE
:100A5000CF92DF92EF92FF920F931F934A015B01B7
:100A600028013901E82FF0E0EE0FFF1FEE57FD4F90
:100A700060817181882777FD8095982FA501940169
:100A80000E94C50720E137E240E050E00E941A08CA
:100A9000D301C2018C199D09AE09BF09240D351D72
:100AA000461D571D281739074A075B0714F49C0198
:100AB000AD01C40CD51CE61CF71C2C153D054E05DC
:100AC0005F0534F0A701960121503040404050406E
:100AD000C9011F910F91FF90EF90DF90CF90BF90D1
:100AE000AF909F908F907F906F905F904F90089500
:100AF000EF92FF920F931F930E9468040E94D40309
:100B000061E470E180E295E50E94690381E063E6BB
:100B10000E94950383E06FE00E9495038DE065E0FD
:100B20000E9495038EE064E00E94950385E16BE2EC
:100B30000E94950388E162E60E94950389E160E8DE
:100B40000E9495038CE16AE00E9495038FE167E0C3
:100B50000E94950380E267E10E94950389E267E4C1
:100B60000E94950380EA0E94620382E061E00E9495
:100B7000950382E00E940F0482E00E940F04882304
:100B8000D9F782E20E940F0484E20E940F048FE0F2
:100B900060E00E94950382E062E00E94950382E09B
:100BA0000E940F048823D9F785E20E940F048FE08A
:100BB00060EA0E94950382E062E00E94950382E071
:100BC0000E940F048823D9F785E20E940F0480EA6F
:100BD0000E9462030E9486087C010E948608AA2760
:100BE00097FDA095BA2FDC01992788270027F7FCED
:100BF0000095102F8E0D9F1DA01FB11F80937D02A9
:100C000090937E02A0937F02B09380020E94860898
:100C10006CE070E00E94E407FC01EA5CFD4F80811B
:100C200080937C026FEF7FEF8FEF9FEF0E94520463
:100C30001092810280E197E262E476E00E94530420
:100C40001F910F91FF90EF900895833061F08430F1
:100C500028F4882359F0823059F408C0863070F0A7
:100C60008A3031F408C021E030E00AC00E947805E3
:100C700020E030E005C02FEF3FEF02C024E030E07D
:100C8000C9010895CF92DF92EF92FF920F931F93C5
:100C900080918102873009F4D9C0883058F48330BC
:100CA00009F48EC0843018F48130D9F489C08530BD
:100CB000C1F486C0803809F46DC0813830F48830C2
:100CC00009F4E6C08D3050F4E8C0843809F462C0FD
:100CD000863809F45FC0823809F45CC020E030E057
:100CE0004CC1863011F489E005C0843011F481E0F4
:100CF00001C08F5F80936C0280917C0280936D02B3
:100D000020917D0230917E0240917F0250918002BD
:100D1000852F9927AA27BB2780936E02CA01AA278D
:100D2000BB2780936F02BB27A52F942F832F80931F
:100D300070022093710288E08093720284EE8093A7
:100D400073028AEE809374028EE98093750280E5C7
:100D5000809376028BED8093770284E08093780213
:100D600086E28093790289E780937A020E941105D6
:100D700080EA0E9462038CE692E060E140917C028E
:100D80000E94D9038091810280688093810228EBC0
:100D90003BE0F3C000E010E080E00E940F0480FF21
:100DA00005C00F5F1F4F04311105B1F780EC0E94A1
:100DB0006203809181028F778F5F8093810207C0E9
:100DC00080E00E940F0480FF05C01092810224E998
:100DD00031E1D3C08CE692E060E10E943004809162
:100DE00081028F5F80938102843069F560916E0289
:100DF00070E080E090E0962F882777276627209183
:100E00006F0230E040E050E0A90133272227622B37
:100E1000732B842B952B2091710230E040E050E041
:100E2000622B732B842B952B2091700230E040E0D5
:100E300050E0542F432F322F2227622B732B842B09
:100E4000952B0E94690324EF31E097C080E00E9457
:100E50000F0480FD17C08CE692E060E10E94300430
:100E600080916D02893071F488E08093810260E0A6
:100E700070E080E090E00E9452041092000120E6B1
:100E80003DE67BC086E08093810228E93AE375C0A5
:100E90008091AA0290E00E94A40380E1ECE6F2E0D7
:100EA000DF011D928A95E9F780E280936C0282E06F
:100EB00040E850E060E070E000E810E020E030E062
:100EC000E0E8CE2ED12CE12CF12C0E94200580935D
:100ED0006E0283E040E850E060E070E000E810E07F
:100EE00020E030E00E94200580958093700281E030
:100EF00040E850E060E070E000E810E020E030E022
:100F00000E94200580958093720280E040E850E0C6
:100F100060E070E000E810E020E030E00E94200592
:100F20008093740282E08093750284E68093760257
:100F30008BED8093770284E08093780286E2809341
:100F4000790289E780937A020E94110580918102DB
:100F500040917C028C3009F44D5D8CE692E060E1BA
:100F60000E94D903809181028C3011F488E001C085
:100F70008F5F8093810220E137E2C9011F910F91B9
:100F8000FF90EF90DF90CF900895629FD001739F04
:100F9000F001829FE00DF11D649FE00DF11D929F15
:100FA000F00D839FF00D749FF00D659FF00D992754
:100FB000729FB00DE11DF91F639FB00DE11DF91F78
:100FC000BD01CF0111240895AA1BBB1B51E107C02D
:100FD000AA1FBB1FA617B70710F0A61BB70B881FC9
:100FE000991F5A95A9F780959095BC01CD01089558
:100FF000A1E21A2EAA1BBB1BFD010DC0AA1FBB1F1D
:10100000EE1FFF1FA217B307E407F50720F0A21B8E
:10101000B30BE40BF50B661F771F881F991F1A94FB
:1010200069F760957095809590959B01AC01BD0125
:10103000CF01089597FB092E05260ED057FD04D049
:10104000D7DF0AD0001C38F4509540953095219593
:101050003F4F4F4F5F4F0895F6F7909580957095ED
:1010600061957F4F8F4F9F4F0895A0E0B0E0EBE375
:10107000F8E00C949E08EC01A880B980CA80DB805F
:10108000A114B104C104D10441F484E2A82E89ED75
:10109000B82E8BE5C82E87E0D82EC601B5012DE10C
:1010A00033EF41E050E00E941A0827EA31E440E0C3
:1010B00050E00E94C5077B018C01C601B5012DE1FE
:1010C00033EF41E050E00E941A08CA01B9012CEE4A
:1010D00034EF4FEF5FEF0E94C5076E0D7F1D801F3D
:1010E000911F97FF04C06150704080409048688312
:1010F00079838A839B839B013F77C901CDB7DEB794
:10110000EAE00C94BA080E943508089582E492E05F
:101110000E9435080895A0E0B0E0809342029093C9
:101120004302A0934402B093450208952F923F9248
:101130004F925F926F927F928F929F92AF92BF92E7
:10114000CF92DF92EF92FF920F931F93CF93DF9393
:10115000CDB7DEB7CA1BDB0B0FB6F894DEBF0FBEF0
:10116000CDBF09942A88398848885F846E847D843D
:101170008C849B84AA84B984C884DF80EE80FD803F
:101180000C811B81AA81B981CE0FD11D0FB6F894B5
:0E119000DEBF0FBECDBFED010895F894FFCF76
:10119E00010101FF42001400FFFF000000000121C9
:1011AE000500509E4B0002162B1200628080000A32
:1011BE0032C30F13C300FF00003B0017478003012B
:1011CE00451800010FFF0A5A14641E6E28783282E9
:1011DE003C8C469650A0A05096468C3C8232782885
:1011EE006E1E64145A0A0A5A50A0146446961E6E55
:1011FE003C8C28783282823278288C3C6E1E964641
:10120E006414A0505A0A28780A5A50A014641E6E0C
:10121E003C8C32824696964682328C3C6E1E64140C
:10122E00A0505A0A782850A028780A5A1E6E3C8C74
:10123E003282469614646414964682328C3C6E1E3C
:10124E005A0A7828A05050A046963C8C28780A5A04
:10125E0032821E6E146464146E1E82325A0A78280C
:10126E008C3C9646A05046963C8C50A028780A5A44
:10127E001E6E32821464641482326E1E5A0A7828EC
:10128E00A0508C3C964646960A5A3C8C146450A04C
:10129E0028781E6E328282326E1E7828A050641418
:1012AE008C3C5A0A964646960A5A50A03C8C287890
:1012BE001E6E32821464641482326E1E78288C3C48
:1012CE00A0505A0A9646141E28323C46505A646E56
:0612DE007882010000000F
:00000001FF
