:100000000C9434000C9451000C9451000C94510049
:100010000C9451000C9451000C9451000C9451001C
:100020000C9451000C9451000C9453000C94160441
:100030000C9451000C9451000C9451000C945100FC
:100040000C9451000C9451000C9451000C945100EC
:100050000C9451000C9451000C9451000C945100DC
:100060000C9451000C94510011241FBECFEFD8E026
:10007000DEBFCDBF12E0A0E0B1E0E4E2F1E102C0FA
:1000800005900D92A634B107D9F712E0A6E4B2E0CC
:1000900001C01D92AB3AB107E1F70E94EC000C944D
:1000A00090080C9400001F920F920FB60F9211242B
:1000B0002F933F934F935F936F937F938F939F9370
:1000C000AF93BF93CF93DF93EF93FF93299A8091E0
:1000D00086009091870090934D0280934C0220916E
:1000E000480230914902AC01421B530B9A015093D4
:1000F0004B0240934A0290934902809348028091B8
:100100004602803108F050C057E12137350754F0DE
:100110001092460210920101809147028F5F8093F6
:10012000470246C080910101882309F041C0C901FE
:100130009595879590934B0280934A02815D9740F5
:1001400034F080ED97E090934B0280934A028091C7
:100150004A0290914B02885E934034F488EE93E01B
:1001600090934B0280934A0280914602C82FD0E0C0
:1001700060914A0270914B02882777FD8095982FF5
:1001800024E130E040E050E00E948807605375476A
:10019000CC0FDD1FCE57DD4F7983688380914602F7
:1001A0008F5F8093460204C01092460210920101B4
:1001B0002998FF91EF91DF91CF91BF91AF919F91DE
:1001C0008F917F916F915F914F913F912F910F9000
:1001D0000FBE0F901F90189580E390E2A0E1B0E071
:1001E0008093A4029093A502A093A602B093A702C5
:1001F00088E08093A302219A229A20983D98459AFC
:10020000399A41984098389A3A9A42983B9A439A38
:1002100082E88093810080E280936F0078948091DF
:1002200047028D30E0F3809181008F7780938100C9
:10023000359B02C080E001C082E00E94E40580910D
:1002400000018823E1F781E080930101809186001D
:100250009091870090934902809348028091810099
:10026000806880938100FFCFEF92FF920F931F93DE
:10027000CF93DF93882311F485E501C08AEA809348
:10028000550280914E0290914F02A0915002B09180
:10029000510280935602292F3A2F4B2F5527209336
:1002A00057029D0144275527209358028B2F9927E9
:1002B000AA27BB27809359028091A302E82EFF242E
:1002C000CAE5D2E000E010E0E016F1061CF4188266
:1002D000198229C0F801EE0FFF1FEE57FD4F608114
:1002E0007181882777FD8095982F21EF31E040E0DC
:1002F00050E00E94880720E137E240E050E00E9491
:10030000DD0727523A4F4F4F5F4F57FF04C020E0A1
:1003100030E040E050E02883BB2757FDBA95A52F79
:10032000942F832F89830F5F1F4F2296083011056A
:1003300059F680918A0290918B02895B9B402CF048
:1003400080916102806380936102DF91CF911F9160
:100350000F91FF90EF900895DF92EF92FF920F932D
:100360001F93CF93DF93D82E0E940C040E94780332
:100370006AE275EC85E794E50E940D03C0E0D0E0E9
:10038000FE01EE5FFE4F60816F3F19F08C2F0E94DF
:1003900039032196C333D10599F780EA0E940603F9
:1003A00082E061E00E94390382E00E94B30382E0B0
:1003B0000E94B3038823D9F782E20E94B30384E248
:1003C00063E10E94390386E26BE30E9439038FE008
:1003D00060E00E94390382E062E00E94390382E01B
:1003E0000E94B3038823D9F785E20E94B3038FE00C
:1003F00060EA0E94390382E062E00E94390382E0F1
:100400000E94B3038823D9F785E20E94B30385E2F3
:1004100068E00E94390380EA0E9406038091A402EA
:100420009091A502A091A602B091A7020097A10504
:10043000B10549F080934E0290934F02A093500271
:10044000B093510224C083EA92E046E050E060E0BD
:1004500070E00E9458047B018C0182EA92E041E046
:1004600050E060E070E00E9458046E0D7F1D801F18
:10047000911F2FE332E44FE050E00E94BB076093EE
:100480004E0270934F0280935002909351028091DC
:100490004E0290914F02A0915002B0915102282F2C
:1004A0002F7020935202109253029070A070B0707F
:1004B00054E0B695A795979587955A95D1F780936F
:1004C0005402DD2061F48091A4029091A502A091D4
:1004D000A602B091A7020097A105B10569F484ECCA
:1004E00099E090936B0280936A026DE270E080E085
:1004F00090E00E94F60304C010926B0210926A0210
:1005000080E699E06CEB72E00E94F703DF91CF91F7
:100510001F910F91FF90EF90DF9008958330A9F025
:10052000843028F4882359F0823061F41FC086306B
:1005300018F08A3039F41CC028E030E01BC080E09D
:100540000E94AC0120E030E015C020E030E0809156
:10055000A4029091A502A091A602B091A7020097D3
:10056000A105B10539F421E030E004C081E0E8CF15
:100570002FEF3FEFC90108952A9A80916A02909166
:100580006B02892BD9F081E00E94340185E592E06D
:1005900065E141E00E947D0380916A0290916B02C7
:1005A000019790936B0280936A02892B59F560E062
:1005B00070E080E090E00E94F60324C010920001F9
:1005C00080E00E94340180915302E0915202F0E0F9
:1005D00064E0EE0FFF1F6A95E1F7E80FF11DEB5C99
:1005E000FE4F408180915402481B85E592E065E111
:1005F0000E947D038091530290E001968F7090706D
:10060000809353022A9884EB95E00895682F4398CD
:1006100082E00E94BC04439A0895EF92FF920F93E8
:100620001F937B018C01439882E066E00E94BC042A
:10063000212F33274427552782E0622F0E94BC04D4
:1006400098014427552782E0622F0E94BC04552759
:10065000412F302F2F2D82E0622F0E94BC0482E0B8
:100660006E2D0E94BC04439A1F910F91FF90EF9052
:1006700008951F93982F162F439882E0692F0E94A8
:10068000BC0482E0612F0E94BC04439A1F9108952C
:1006900084309105F1F0853091054CF4823091055C
:1006A00091F08330910594F4019751F406C08530A0
:1006B000910591F0089724F411C060E081E010C02A
:1006C00060E080E00DC060E082E00AC060E084E0AD
:1006D00007C061E085E004C062E001C063E087E03C
:1006E000660F660F660F682B88E20E943903089533
:1006F00080E060E00E9439030895DF92EF92FF925C
:100700000F931F93CF93DF937C01162FD42E439822
:1007100082E060EE0E94BC0482E065E00E94BC04BE
:10072000C0E0D0E0012F10E008C0F701EC0FFD1F82
:1007300082E060810E94BC042196C017D107ACF30F
:10074000439A8FE06D2D0E943903439882E060ED5B
:100750000E94BC04439ADF91CF911F910F91FF90AB
:10076000EF90DF9008951F934398682F606482E0B4
:100770000E94BC0482E00E94A60482E00E94A704BA
:1007800082E00E94A50482E00E94A60482E00E940A
:10079000B104182F439A82E00E94AC0482E00E94C8
:1007A000A504812F1F910895EF92FF920F931F933D
:1007B000CF93DF937C01162F80EF0E940603C0E0E9
:1007C000D0E0012F10E008C085E00E94B303F701DC
:1007D000EC0FFD1F80832196C017D107ACF3DF918A
:1007E000CF911F910F91FF90EF9008950895282FBA
:1007F0006115710581F07093AA026093A90280913E
:10080000840090918500220F280F27BD80916F00F2
:10081000826080936F000895EFE6F0E080818D7F25
:1008200080831092AA021092A90208951F920F923B
:100830000FB60F9211242F933F934F935F936F93B3
:100840007F938F939F93AF93BF93EF93FF93E09129
:10085000A902F091AA02309789F009959C010097AE
:1008600069F08091880090918900220F331F820FD8
:10087000931F909389008093880009C080916F0036
:100880008D7F80936F001092AA021092A902FF91AF
:10089000EF91BF91AF919F918F917F916F915F91F8
:1008A0004F913F912F910F900FBE0F901F90189571
:1008B000EF92FF920F931F93CF93DF937A018B01F7
:1008C000EC012FEF3FEF4FEF5FEF2DC0888190E0FD
:1008D000A0E0B0E0282739274A275B27E0E0F0E0D6
:1008E000DA01C901B695A795979587952170307063
:1008F0004070507050954095309521953F4F4F4F27
:100900005F4F20723378487B5D7E282739274A273E
:100910005B273196E830F10519F721960894E10834
:10092000F10801091109E114F1040105110571F63D
:100930002095309540955095B901CA01DF91CF912E
:100940001F910F91FF90EF900895089508953998A1
:1009500041984098389808954198399A4098389A23
:10096000089590E080E0880F429A31998160429822
:100970009F5F9830C1F7089580E090E067FF02C064
:10098000419A01C0419800000000429A000042983C
:1009900001968830910511F0660FF0CF80E0089540
:1009A000ECE6F2E020E030E08191280F311D82E09A
:1009B000EB37F807C9F7822F8195808308954F920E
:1009C0005F926F927F928F929F92AF92BF92CF92DF
:1009D000DF92EF92FF920F931F934A015B01280170
:1009E0003901E82FF0E0EE0FFF1FEE57FD4F608159
:1009F0007181882777FD8095982FA50194010E9429
:100A0000880720E137E240E050E00E94DD07D30193
:100A1000C2018C199D09AE09BF09240D351D461D63
:100A2000571D281739074A075B0714F49C01AD01CD
:100A3000C40CD51CE61CF71C2C153D054E055F05A6
:100A400034F0A70196012150304040405040C90188
:100A50001F910F91FF90EF90DF90CF90BF90AF90DC
:100A60009F908F907F906F905F904F900895EF923E
:100A7000FF920F931F930E940C040E94780361E47D
:100A800070E180E295E50E940D0381E063E60E943B
:100A9000390383E06FE00E9439038DE065E00E9436
:100AA00039038EE064E00E94390385E16BE20E9425
:100AB000390388E162E60E94390389E160E80E9417
:100AC00039038CE16AE00E9439038FE167E00E94FC
:100AD000390380E267E10E94390389E267E40E94FA
:100AE000390380EA0E94060382E061E00E94390334
:100AF00082E00E94B30382E00E94B3038823D9F707
:100B000082E20E94B30384E20E94B3038FE060E0BC
:100B10000E94390382E062E00E94390382E00E9471
:100B2000B3038823D9F785E20E94B3038FE060EA1C
:100B30000E94390382E062E00E94390382E00E9451
:100B4000B3038823D9F785E20E94B30380EA0E94A9
:100B500006030E9449087C010E944908AA2797FDC4
:100B6000A095BA2FDC01992788270027F7FC00956C
:100B7000102F8E0D9F1DA01FB11F80937D0290939B
:100B80007E02A0937F02B09380020E9449086CE02D
:100B900070E00E94A707FC01EB5CFD4F8081809311
:100BA0007C026FEF7FEF8FEF9FEF0E94F6031092B2
:100BB000810280E197E261E076E00E94F7031F91F5
:100BC0000F91FF90EF900895833061F0843028F406
:100BD000882359F0823059F408C0863070F08A308A
:100BE00031F408C021E030E00AC00E94370520E05F
:100BF00030E005C02FEF3FEF02C024E030E0C90134
:100C00000895CF92DF92EF92FF920F931F938091FE
:100C10008102873009F4D9C0883058F4833009F450
:100C20008EC0843018F48130D9F489C08530C1F485
:100C300086C0803809F46DC0813830F4883009F4FA
:100C4000EAC08D3050F4ECC0843809F462C08638B4
:100C500009F45FC0823809F45CC020E030E050C184
:100C6000863011F489E005C0843011F481E001C0C0
:100C70008F5F80936C0280917C0280936D02209143
:100C80007D0230917E0240917F0250918002852F3B
:100C90009927AA27BB2780936E02CA01AA27BB27E0
:100CA00080936F02BB27A52F942F832F8093700210
:100CB0002093710288E08093720284EE8093730225
:100CC0008AEE809374028EE98093750280E58093AA
:100CD00076028BED8093770284E08093780286E23F
:100CE0008093790289E780937A020E94D00480EA97
:100CF0000E9406038CE692E060E140917C020E9433
:100D00007D038091810280688093810228EB3BE023
:100D1000F7C000E010E080E00E94B30380FF05C050
:100D20000F5F1F4F04311105B1F780EC0E940603DD
:100D3000809181028F778F5F8093810207C080E06E
:100D40000E94B30380FF05C01092810224E931E1C3
:100D5000D7C08CE692E060E10E94D40380918102CA
:100D60008F5F80938102843069F560916E0270E03C
:100D700080E090E0962F88277727662720916F02E2
:100D800030E040E050E0A90133272227622B732B8B
:100D9000842B952B2091710230E040E050E0622BD3
:100DA000732B842B952B2091700230E040E050E0B3
:100DB000542F432F322F2227622B732B842B952BFA
:100DC0000E940D0324EF31E09BC080E00E94B3033A
:100DD00080FD1BC08CE692E060E10E94D40380910C
:100DE0006D02893091F488E0809381028FE16FE099
:100DF0000E94390360E070E080E090E00E94F6031A
:100E00001092000120E63DE67BC086E080938102DF
:100E100028E93AE375C08091A80290E00E94480357
:100E200080E1ECE6F2E0DF011D928A95E9F780E2CD
:100E300080936C0282E040E850E060E070E000E8FF
:100E400010E020E030E0E0E8CE2ED12CE12CF12CB7
:100E50000E94DF0480936E0283E040E850E060E08F
:100E600070E000E810E020E030E00E94DF048095B0
:100E70008093700281E040E850E060E070E000E8BC
:100E800010E020E030E00E94DF0480958093720241
:100E900080E040E850E060E070E000E810E020E032
:100EA00030E00E94DF048093740282E08093750238
:100EB00084E6809376028BED8093770284E08093C2
:100EC000780286E28093790289E780937A020E9411
:100ED000D0048091810240917C028C3009F44D5DF8
:100EE0008CE692E060E10E947D03809181028C306B
:100EF00011F488E001C08F5F8093810220E137E226
:100F0000C9011F910F91FF90EF90DF90CF9008954E
:100F1000629FD001739FF001829FE00DF11D649FDD
:100F2000E00DF11D929FF00D839FF00D749FF00D69
:100F3000659FF00D9927729FB00DE11DF91F639F0A
:100F4000B00DE11DF91FBD01CF0111240895AA1BA9
:100F5000BB1B51E107C0AA1FBB1FA617B70710F0A4
:100F6000A61BB70B881F991F5A95A9F780959095D6
:100F7000BC01CD010895A1E21A2EAA1BBB1BFD01E5
:100F80000DC0AA1FBB1FEE1FFF1FA217B307E40768
:100F9000F50720F0A21BB30BE40BF50B661F771FC0
:100FA000881F991F1A9469F76095709580959095A0
:100FB0009B01AC01BD01CF01089597FB092E0526C9
:100FC0000ED057FD04D0D7DF0AD0001C38F450955E
:100FD0004095309521953F4F4F4F5F4F0895F6F75D
:100FE00090958095709561957F4F8F4F9F4F089595
:100FF000A0E0B0E0EEEFF7E00C946108EC01A8800F
:10100000B980CA80DB80A114B104C104D10441F4C9
:1010100084E2A82E89EDB82E8BE5C82E87E0D82E65
:10102000C601B5012DE133EF41E050E00E94DD073C
:1010300027EA31E440E050E00E9488077B018C0100
:10104000C601B5012DE133EF41E050E00E94DD071C
:10105000CA01B9012CEE34EF4FEF5FEF0E94880711
:101060006E0D7F1D801F911F97FF04C0615070405F
:1010700080409048688379838A839B839B013F7774
:10108000C901CDB7DEB7EAE00C947D080E94F807ED
:10109000089581E492E00E94F8070895A0E0B0E08E
:1010A0008093410290934202A0934302B093440282
:1010B00008952F923F924F925F926F927F928F92FC
:1010C0009F92AF92BF92CF92DF92EF92FF920F93D7
:1010D0001F93CF93DF93CDB7DEB7CA1BDB0B0FB6E1
:1010E000F894DEBF0FBECDBF09942A88398848889E
:1010F0005F846E847D848C849B84AA84B984C88434
:10110000DF80EE80FD800C811B81AA81B981CE0F2A
:10111000D11D0FB6F894DEBF0FBECDBFED0108950F
:04112000F894FFCF71
:101124000101FF42001400FFFF000000000121053F
:1011340000509E4B0002162B1200628080000A327F
:10114400C30F13C300FF00003B0017478003014592
:101154001800010FFF0A5A14641E6E287832823C6C
:101164008C469650A0A05096468C3C823278286ECD
:101174001E64145A0A0A5A50A0146446961E6E3C01
:101184008C28783282823278288C3C6E1E96466493
:1011940014A0505A0A28780A5A50A014641E6E3CAF
:1011A4008C32824696964682328C3C6E1E6414A023
:1011B400505A0A782850A028780A5A1E6E3C8C325D
:1011C40082469614646414964682328C3C6E1E5A8F
:1011D4000A7828A05050A046963C8C28780A5A32A7
:1011E400821E6E146464146E1E82325A0A78288C2D
:1011F4003C9646A05046963C8C50A028780A5A1E2D
:101204006E32821464641482326E1E5A0A7828A0E4
:10121400508C3C964646960A5A3C8C146450A0283E
:10122400781E6E328282326E1E7828A05064148C2E
:101234003C5A0A964646960A5A50A03C8C28781E78
:101244006E32821464641482326E1E78288C3CA040
:10125400505A0A9646141E28323C46505A646E78F8
:0612640082010000000001
:00000001FF
