:100000000C9434000C9451000C9451000C94510049
:100010000C9451000C9451000C9451000C9451001C
:100020000C9451000C9451000C9453000C941C043B
:100030000C9451000C9451000C9451000C945100FC
:100040000C9451000C9451000C9451000C945100EC
:100050000C9451000C9451000C9451000C945100DC
:100060000C9451000C94510011241FBECFEFD8E026
:10007000DEBFCDBF12E0A0E0B1E0E2EFF0E102C0F0
:1000800005900D92A634B107D9F712E0A6E4B2E0CC
:1000900001C01D92AB3AB107E1F70E94EC000C944D
:1000A00077080C9400001F920F920FB60F92112444
:1000B0002F933F934F935F936F937F938F939F9370
:1000C000AF93BF93CF93DF93EF93FF93299A8091E0
:1000D00086009091870090934D0280934C0220916E
:1000E000480230914902AC01421B530B9A015093D4
:1000F0004B0240934A0290934902809348028091B8
:100100004602803108F050C057E12137350754F0DE
:100110001092460210920101809147028F5F8093F6
:10012000470246C080910101882309F041C0C901FE
:100130009595879590934B0280934A02815D9740F5
:1001400034F080ED97E090934B0280934A028091C7
:100150004A0290914B02885E934034F488EE93E01B
:1001600090934B0280934A0280914602C82FD0E0C0
:1001700060914A0270914B02882777FD8095982FF5
:1001800024E130E040E050E00E946F076053754783
:10019000CC0FDD1FCE57DD4F7983688380914602F7
:1001A0008F5F8093460204C01092460210920101B4
:1001B0002998FF91EF91DF91CF91BF91AF919F91DE
:1001C0008F917F916F915F914F913F912F910F9000
:1001D0000FBE0F901F90189580E390E2A0E1B0E071
:1001E0008093A4029093A502A093A602B093A702C5
:1001F00088E08093A302219A229A20983D98459AFC
:1002000081E58CBD239A2498259A229A399A41989F
:100210004098389A3A9A42983B9A439A82E8809357
:10022000810080E280936F007894809147028D3046
:10023000E0F3809181008F7780938100359B02C02D
:1002400080E001C082E00E94CF05809100018823F8
:10025000E1F781E080930101809186009091870011
:100260009093490280934802809181008068809336
:100270008100FFCFEF92FF920F931F93CF93DF93F5
:10028000882311F485E501C08AEA809355028091A4
:100290004E0290914F02A0915002B0915102809372
:1002A0005602292F3A2F4B2F5527209357029D0195
:1002B00044275527209358028B2F9927AA27BB271D
:1002C000809359028091A302E82EFF24CAE5D2E070
:1002D00000E010E0E016F1061CF41882198229C033
:1002E000F801EE0FFF1FEE57FD4F608171818827E7
:1002F00077FD8095982F21EF31E040E050E00E949B
:100300006F0720E137E240E050E00E94C407275227
:100310003A4F4F4F5F4F57FF04C020E030E040E0BE
:1003200050E02883BB2757FDBA95A52F942F832F24
:1003300089830F5F1F4F22960830110559F680916F
:100340008A0290918B02895B9B402CF08091610224
:10035000806380936102DF91CF911F910F91FF9095
:10036000EF900895DF92EF92FF920F931F93CF9338
:10037000DF93D82E0E9412040E947E036AE275EC7D
:1003800085E794E50E941303C0E0D0E0FE01EE5F34
:10039000FE4F60816F3F19F08C2F0E943F03219622
:1003A000C333D10599F780EA0E940C0382E061E033
:1003B0000E943F0382E00E94B90382E00E94B903D9
:1003C0008823D9F782E20E94B90384E263E10E94A4
:1003D0003F0386E26BE30E943F038FE060E00E94F0
:1003E0003F0382E062E00E943F0382E00E94B90383
:1003F0008823D9F785E20E94B9038FE060EA0E9462
:100400003F0382E062E00E943F0382E00E94B90362
:100410008823D9F785E20E94B90385E268E00E944B
:100420003F0380EA0E940C038091A4029091A502F0
:10043000A091A602B091A7020097A105B10549F0CD
:1004400080934E0290934F02A0935002B0935102BA
:1004500024C083EA92E046E050E060E070E00E9451
:100460005E047B018C0182EA92E041E050E060E0B2
:1004700070E00E945E046E0D7F1D801F911F2FE3B0
:1004800032E44FE050E00E94A20760934E02709366
:100490004F02809350029093510280914E029091AE
:1004A0004F02A0915002B0915102282F2F7020933B
:1004B0005202109253029070A070B07054E0B69542
:1004C000A795979587955A95D1F780935402DD208B
:1004D00061F48091A4029091A502A091A602B0912E
:1004E000A7020097A105B10569F484EC99E0909307
:1004F0006B0280936A026DE270E080E090E00E94FF
:10050000FC0304C010926B0210926A0280E699E02C
:1005100062EC72E00E94FD03DF91CF911F910F9179
:10052000FF90EF90DF9008958330A9F0843028F495
:10053000882359F0823061F41FC0863018F08A3069
:1005400039F41CC028E030E01BC080E00E94B201FA
:1005500020E030E015C020E030E08091A4029091CE
:10056000A502A091A602B091A7020097A105B1052E
:1005700039F421E030E004C081E0E8CF2FEF3FEF15
:10058000C90108952A9A80916A0290916B02892B81
:10059000D9F081E00E943A0185E592E065E141E011
:1005A0000E94830380916A0290916B02019790935D
:1005B0006B0280936A02892B59F560E070E080E05D
:1005C00090E00E94FC0324C01092000180E00E9491
:1005D0003A0180915302E0915202F0E064E0EE0FA4
:1005E000FF1F6A95E1F7E80FF11DEB5CFE4F4081BC
:1005F00080915402481B85E592E065E10E948303E7
:100600008091530290E001968F7090708093530216
:100610002A9884EB95E00895682F439882E00E9421
:10062000B504439A0895EF92FF920F931F937B01B5
:100630008C01439882E066E00E94B504212F3327A5
:100640004427552782E0622F0E94B5049801442771
:10065000552782E0622F0E94B5045527412F302F85
:100660002F2D82E0622F0E94B50482E06E2D0E9441
:10067000B504439A1F910F91FF90EF9008951F9337
:10068000982F162F439882E0692F0E94B50482E0CC
:10069000612F0E94B504439A1F91089584309105FB
:1006A000F1F0853091054CF48230910591F0833062
:1006B000910594F4019751F406C08530910591F0AD
:1006C000089724F411C060E081E010C060E080E091
:1006D0000DC060E082E00AC060E084E007C061E035
:1006E00085E004C062E001C063E087E0660F660F4A
:1006F000660F682B88E20E943F03089580E060E067
:100700000E943F030895DF92EF92FF920F931F9391
:10071000CF93DF937C01162FD42E439882E060EEB6
:100720000E94B50482E065E00E94B504C0E0D0E01C
:10073000012F10E008C0F701EC0FFD1F82E060817F
:100740000E94B5042196C017D107ACF3439A8FE0FD
:100750006D2D0E943F03439882E060ED0E94B50436
:10076000439ADF91CF911F910F91FF90EF90DF900F
:1007700008951F934398682F606482E00E94B50437
:1007800082E00E94AC0482E00E94AD0482E00E94FC
:10079000AB0482E00E94AC0482E00E94AF04182FF8
:1007A000439A82E00E94AE0482E00E94AB04812F53
:1007B0001F910895EF92FF920F931F93CF93DF93B2
:1007C0007C01162F80EF0E940C03C0E0D0E0012FC7
:1007D00010E008C085E00E94B903F701EC0FFD1F8F
:1007E00080832196C017D107ACF3DF91CF911F9181
:1007F0000F91FF90EF9008950895282F61157105CE
:1008000081F07093AA026093A90280918400909174
:100810008500220F280F27BD80916F008260809392
:100820006F000895EFE6F0E080818D7F8083109265
:10083000AA021092A90208951F920F920FB60F926A
:1008400011242F933F934F935F936F937F938F93D5
:100850009F93AF93BF93EF93FF93E091A902F09121
:10086000AA02309789F009959C01009769F0809160
:10087000880090918900220F331F820F931F90935D
:1008800089008093880009C080916F008D7F8093DC
:100890006F001092AA021092A902FF91EF91BF91EE
:1008A000AF919F918F917F916F915F914F913F9108
:1008B0002F910F900FBE0F901F901895EF92FF92FF
:1008C0000F931F93CF93DF937A018B01EC012FEFEE
:1008D0003FEF4FEF5FEF2DC0888190E0A0E0B0E0E8
:1008E000282739274A275B27E0E0F0E0DA01C90131
:1008F000B695A79597958795217030704070507088
:1009000050954095309521953F4F4F4F5F4F207246
:100910003378487B5D7E282739274A275B27319625
:10092000E830F10519F721960894E108F10801096A
:100930001109E114F1040105110571F620953095B6
:1009400040955095B901CA01DF91CF911F910F9148
:10095000FF90EF90089508950895089508951EBC9E
:100960000DB407FEFDCF8EB508956EBD0DB407FE24
:10097000FDCF80E00895ECE6F2E020E030E08191E8
:10098000280F311D82E0EB37F807C9F7822F8195D8
:10099000808308954F925F926F927F928F929F9281
:1009A000AF92BF92CF92DF92EF92FF920F931F937D
:1009B0004A015B0128013901E82FF0E0EE0FFF1F2B
:1009C000EE57FD4F60817181882777FD8095982FC4
:1009D000A50194010E946F0720E137E240E050E05A
:1009E0000E94C407D301C2018C199D09AE09BF0939
:1009F000240D351D461D571D281739074A075B076B
:100A000014F49C01AD01C40CD51CE61CF71C2C157C
:100A10003D054E055F0534F0A70196012150304099
:100A200040405040C9011F910F91FF90EF90DF901F
:100A3000CF90BF90AF909F908F907F906F905F907E
:100A40004F900895EF92FF920F931F930E9412040C
:100A50000E947E0361E470E180E295E50E94130349
:100A600081E063E60E943F0383E06FE00E943F0362
:100A70008DE065E00E943F038EE064E00E943F034A
:100A800085E16BE20E943F0388E162E60E943F033A
:100A900089E160E80E943F038CE16AE00E943F0325
:100AA0008FE167E00E943F0380E267E10E943F031D
:100AB00089E267E40E943F0380EA0E940C0382E01F
:100AC00061E00E943F0382E00E94B90382E00E943D
:100AD000B9038823D9F782E20E94B90384E20E9415
:100AE000B9038FE060E00E943F0382E062E00E9471
:100AF0003F0382E00E94B9038823D9F785E20E9470
:100B0000B9038FE060EA0E943F0382E062E00E9446
:100B10003F0382E00E94B9038823D9F785E20E944F
:100B2000B90380EA0E940C030E9430087C010E94F5
:100B30003008AA2797FDA095BA2FDC0199278827AE
:100B40000027F7FC0095102F8E0D9F1DA01FB11FD1
:100B500080937D0290937E02A0937F02B0938002E7
:100B60000E9430086CE070E00E948E07FC01EB5C94
:100B7000FD4F808180937C026FEF7FEF8FEF9FEFBF
:100B80000E94FC031092810280E197E26CEE75E016
:100B90000E94FD031F910F91FF90EF900895833005
:100BA00061F0843028F4882359F0823059F408C069
:100BB000863070F08A3031F408C021E030E00AC09D
:100BC0000E94220520E030E005C02FEF3FEF02C079
:100BD00024E030E0C9010895CF92DF92EF92FF92B6
:100BE0000F931F9380918102873009F4D9C0883018
:100BF00058F4833009F48EC0843018F48130D9F46D
:100C000089C08530C1F486C0803809F46DC0813850
:100C100030F4883009F4E6C08D3050F4E8C08438F0
:100C200009F462C0863809F45FC0823809F45CC0F8
:100C300020E030E04CC1863011F489E005C08430FA
:100C400011F481E001C08F5F80936C0280917C027F
:100C500080936D0220917D0230917E0240917F024F
:100C600050918002852F9927AA27BB2780936E0277
:100C7000CA01AA27BB2780936F02BB27A52F942FF9
:100C8000832F809370022093710288E08093720218
:100C900084EE809373028AEE809374028EE98093CF
:100CA000750280E5809376028BED8093770284E075
:100CB0008093780286E28093790289E780937A02B2
:100CC0000E94BB0480EA0E940C038CE692E060E183
:100CD00040917C020E94830380918102806880930E
:100CE000810228EB3BE0F3C000E010E080E00E94CE
:100CF000B90380FF05C00F5F1F4F04311105B1F725
:100D000080EC0E940C03809181028F778F5F80932B
:100D1000810207C080E00E94B90380FF05C01092E5
:100D2000810224E931E1D3C08CE692E060E10E94C7
:100D3000DA03809181028F5F80938102843069F5AC
:100D400060916E0270E080E090E0962F8827772710
:100D5000662720916F0230E040E050E0A901332780
:100D60002227622B732B842B952B2091710230E06C
:100D700040E050E0622B732B842B952B2091700266
:100D800030E040E050E0542F432F322F2227622BD7
:100D9000732B842B952B0E94130324EF31E097C013
:100DA00080E00E94B90380FD17C08CE692E060E10C
:100DB0000E94DA0380916D02893071F488E080939B
:100DC000810260E070E080E090E00E94FC031092FD
:100DD000000120E63DE67BC086E08093810228E9A1
:100DE0003AE375C08091A80290E00E944E0380E132
:100DF000ECE6F2E0DF011D928A95E9F780E280934C
:100E00006C0282E040E850E060E070E000E810E052
:100E100020E030E0E0E8CE2ED12CE12CF12C0E9435
:100E2000CA0480936E0283E040E850E060E070E026
:100E300000E810E020E030E00E94CA048095809332
:100E4000700281E040E850E060E070E000E810E00F
:100E500020E030E00E94CA0480958093720280E016
:100E600040E850E060E070E000E810E020E030E0B2
:100E70000E94CA048093740282E08093750284E623
:100E8000809376028BED8093770284E080937802E2
:100E900086E28093790289E780937A020E94BB04FC
:100EA0008091810240917C028C3009F44D5D8CE68A
:100EB00092E060E10E948303809181028C3011F402
:100EC00088E001C08F5F8093810220E137E2C90191
:100ED0001F910F91FF90EF90DF90CF900895629F48
:100EE000D001739FF001829FE00DF11D649FE00D22
:100EF000F11D929FF00D839FF00D749FF00D659F83
:100F0000F00D9927729FB00DE11DF91F639FB00D81
:100F1000E11DF91FBD01CF0111240895AA1BBB1BC0
:100F200051E107C0AA1FBB1FA617B70710F0A61BE9
:100F3000B70B881F991F5A95A9F780959095BC010A
:100F4000CD010895A1E21A2EAA1BBB1BFD010DC005
:100F5000AA1FBB1FEE1FFF1FA217B307E407F50769
:100F600020F0A21BB30BE40BF50B661F771F881F45
:100F7000991F1A9469F760957095809590959B01DB
:100F8000AC01BD01CF01089597FB092E05260ED0B7
:100F900057FD04D0D7DF0AD0001C38F45095409597
:100FA000309521953F4F4F4F5F4F0895F6F790953D
:100FB0008095709561957F4F8F4F9F4F0895A0E06A
:100FC000B0E0E5EEF7E00C944808EC01A880B980A9
:100FD000CA80DB80A114B104C104D10441F484E2CD
:100FE000A82E89EDB82E8BE5C82E87E0D82EC60135
:100FF000B5012DE133EF41E050E00E94C40727EA3C
:1010000031E440E050E00E946F077B018C01C60193
:10101000B5012DE133EF41E050E00E94C407CA0161
:10102000B9012CEE34EF4FEF5FEF0E946F076E0DAA
:101030007F1D801F911F97FF04C06150704080404A
:101040009048688379838A839B839B013F77C9019A
:10105000CDB7DEB7EAE00C9464080E94DF0708957C
:1010600081E492E00E94DF070895A0E0B0E0809361
:10107000410290934202A0934302B0934402089528
:101080002F923F924F925F926F927F928F929F9298
:10109000AF92BF92CF92DF92EF92FF920F931F9386
:1010A000CF93DF93CDB7DEB7CA1BDB0B0FB6F89437
:1010B000DEBF0FBECDBF09942A88398848885F8477
:1010C0006E847D848C849B84AA84B984C884DF80E8
:1010D000EE80FD800C811B81AA81B981CE0FD11DCC
:1010E0000FB6F894DEBF0FBECDBFED010895F894A2
:0210F000FFCF30
:1010F2000101FF42001400FFFF0000000001210572
:1011020000509E4B0002162B1200628080000A32B1
:10111200C30F13C300FF00003B00174780030145C4
:101122001800010FFF0A5A14641E6E287832823C9E
:101132008C469650A0A05096468C3C823278286EFF
:101142001E64145A0A0A5A50A0146446961E6E3C33
:101152008C28783282823278288C3C6E1E964664C5
:1011620014A0505A0A28780A5A50A014641E6E3CE1
:101172008C32824696964682328C3C6E1E6414A055
:10118200505A0A782850A028780A5A1E6E3C8C328F
:1011920082469614646414964682328C3C6E1E5AC1
:1011A2000A7828A05050A046963C8C28780A5A32D9
:1011B200821E6E146464146E1E82325A0A78288C5F
:1011C2003C9646A05046963C8C50A028780A5A1E5F
:1011D2006E32821464641482326E1E5A0A7828A017
:1011E200508C3C964646960A5A3C8C146450A02871
:1011F200781E6E328282326E1E7828A05064148C61
:101202003C5A0A964646960A5A50A03C8C28781EAA
:101212006E32821464641482326E1E78288C3CA072
:10122200505A0A9646141E28323C46505A646E782A
:0612320082010000000033
:00000001FF
