:100000000C9434000C9451000C9451000C94510049
:100010000C9451000C9451000C9451000C9451001C
:100020000C9451000C9451000C9453000C94430513
:100030000C9451000C9451000C9451000C945100FC
:100040000C9451000C9451000C9451000C945100EC
:100050000C9451000C9451000C9451000C945100DC
:100060000C9451000C94510011241FBECFEFD8E026
:10007000DEBFCDBF12E0A0E0B1E0E4ECF3E102C0EE
:1000800005900D92A634B107D9F712E0A6E4B2E0CC
:1000900001C01D92A03BB107E1F70E94FA000C9449
:1000A000E0090C9400001F920F920FB60F921124DA
:1000B0002F933F934F935F936F937F938F939F9370
:1000C000AF93BF93CF93DF93EF93FF93299A8091E0
:1000D0004A0290914B02892B41F4809184009091C7
:1000E000850090934B0280934A0280918600909104
:1000F000870090934F0280934E02209148023091E6
:100100004902AC01421B530B9A0150934D0240939C
:100110004C029093490280934802809146028031BC
:1001200008F050C057E12137350754F010924602CD
:1001300010920101809147028F5F8093470246C071
:1001400080910101882309F041C0C90195958795E7
:1001500090934D0280934C02815D974034F080ED86
:1001600097E090934D0280934C0280914C029091C5
:100170004D02885E934034F488EE93E090934D02F4
:1001800080934C0280914602C82FD0E060914C02CF
:1001900070914D02882777FD8095982F24E130E0FB
:1001A00040E050E00E949F0860537547CC0FDD1F70
:1001B000CC57DD4F79836883809146028F5F8093AF
:1001C000460204C010924602109201012998FF9144
:1001D000EF91DF91CF91BF91AF919F918F917F91DF
:1001E0006F915F914F913F912F910F900FBE0F90A4
:1001F0001F901895EF92FF920F931F9384B714BE30
:1002000088E10FB6F89480936000109260000FBEF2
:1002100088E08093A80286E08093AD0210924B02A2
:1002200010924A0215B82098219A229A239A24986B
:10023000259A18B83B9A3C98449A3D98459A1BB821
:100240005098519A529A539A549A559A81E58CBD76
:1002500082E88093810080E280936F00789480919F
:1002600047028531E0F3809181008F778093810090
:1002700080914A0290914B020E94650985E090E0CE
:100280000E947009182F86E090E00E9470091817EC
:1002900061F50E9460097C010E946009AC0166273B
:1002A00057FD6095762FBA01552744270027F7FCA4
:1002B0000095102F4E0D5F1D601F711F4093A90206
:1002C0005093AA026093AB027093AC0280E090E07E
:1002D0000E948C0985E090E064E30E947E0986E03C
:1002E00090E064EA0E947E090CC080E090E00E94E9
:1002F00078096093A9027093AA028093AB0290934D
:10030000AC028091A9029091AA02A091AB02B09197
:10031000AC02803A50F08F7080698093A90290936C
:10032000AA02A093AB02B093AC024091920250910A
:1003300093025093A5024093A4028AE194EE20E038
:1003400003C0865D944F2F5F84179507D4F3233045
:10035000D1F0243028F4213071F0223078F407C035
:100360002530E1F02530A0F0263011F51CC01092A8
:10037000A7025B9A1DC02093A70219C082E0809358
:10038000A7025A9A15C02093A7025B9A5C9AFFCFE6
:1003900084E08093A7025C9A5A9AFFCF2093A70229
:1003A0005A9A5B9AFFCF2093A7025A9A5B9A5C9A5B
:1003B0008091A702863009F038C020E931E0359BF2
:1003C00017C088EB9BE0F9013197F1F70197D9F756
:1003D0005A985B985C98359B0BC088EB9BE0F901C1
:1003E0003197F1F70197D9F75A9A5B9A5C9AE7CF60
:1003F0005A9A5B9A5C9A359BFECF85E090E06FEF4E
:100400000E947E0986E090E06FEF0E947E09F999D4
:10041000FECF2CE088E190E00FB6F894A895809389
:1004200060000FBE20936000FFCF823019F40E945D
:10043000FB065D9A8091A702823050F4359905C081
:1004400082E00E94B4035D9A03C080E00E94B4037E
:10045000809100018823E1F75D9881E0809301019C
:100460008091860090918700909349028093480282
:1004700080918100806880938100FFCFEF92FF928E
:100480000F931F93CF93DF93882311F485E501C069
:100490008AEA809357028091500290915102A09174
:1004A0005202B091530280935802292F3A2F4B2FBA
:1004B0005527209359029D014427552720935A021E
:1004C0008B2F9927AA27BB2780935B028091A802D4
:1004D000E82EFF24CCE5D2E000E010E0E016F106C3
:1004E0001CF41882198229C0F801EE0FFF1FEC5787
:1004F000FD4F60817181882777FD8095982F21EFCE
:1005000031E040E050E00E949F0820E137E240E007
:1005100050E00E94F40827523A4F4F4F5F4F57FF69
:1005200004C020E030E040E050E02883BB2757FDC6
:10053000BA95A52F942F832F89830F5F1F4F229683
:100540000830110559F68091A702813021F580917C
:100550008C0290918D02815991402CF08091630220
:1005600080628093630280918E0290918F02815904
:1005700091402CF0809161028064809361028091AF
:10058000900290919102815991402CF080916102EA
:10059000806880936102DF91CF911F910F91FF904E
:1005A000EF900895DF92EF92FF920F931F93CF93F6
:1005B000DF93D82E0E9439050E94A5046AE275ECEB
:1005C00085E794E50E943A04C0E0D0E0FE01EE5FCA
:1005D000FE4F60816F3F19F08C2F0E9466042196B8
:1005E000C333D10599F780EA0E94330482E061E0C9
:1005F0000E94660482E00E94E00482E00E94E0041F
:100600008823D9F782E20E94E00484E263E10E9439
:10061000660486E26BE30E9466048FE060E00E945D
:10062000660482E062E00E94660482E00E94E004C8
:100630008823D9F785E20E94E0048FE060EA0E94F7
:10064000660482E062E00E94660482E00E94E004A8
:100650008823D9F785E20E94E00485E268E00E94E1
:10066000660480EA0E9433048091A9029091AA0254
:10067000A091AB02B091AC020097A105B10549F081
:100680008093500290935102A0935202B093530270
:1006900024C088EA92E046E050E060E070E00E940A
:1006A00085057B018C0186EA92E041E050E060E044
:1006B00070E00E9485056E0D7F1D801F911F2FE346
:1006C00032E44FE050E00E94D208609350027093F1
:1006D0005102809352029093530280915002909164
:1006E0005102A0915202B0915302282F2F702093F3
:1006F0005402109255029070A070B07054E0B695FC
:10070000A795979587955A95D1F780935602DD2046
:1007100061F48091A9029091AA02A091AB02B091DC
:10072000AC020097A105B10569F484EC99E09093BF
:100730006D0280936C026DE270E080E090E00E94B8
:10074000230504C010926D0210926C0280E699E0BD
:1007500062EE73E00E942405DF91CF911F910F910B
:10076000FF90EF90DF9008958330A9F0843028F453
:10077000882359F0823061F41FC0863018F08A3027
:1007800039F41CC028E030E01BC080E00E94D20297
:1007900020E030E015C020E030E08091A902909187
:1007A000AA02A091AB02B091AC020097A105B105DD
:1007B00039F421E030E004C081E0E8CF2FEF3FEFD3
:1007C000C90108952A9A80916C0290916D02892B3B
:1007D000D9F081E00E943E0287E592E065E141E0C8
:1007E0000E94AA0480916C0290916D0201979093EF
:1007F0006D0280936C02892B91F560E070E080E0DF
:1008000090E00E9423052BC01092000180E00E941E
:100810003E0280915502E0915402F0E064E0EE0F58
:10082000FF1F6A95E1F7E80FF11DEB5CFE4F408179
:1008300080915602481B87E592E065E10E94AA0478
:100840008091550290E001968F70907080935502D0
:10085000882329F48091AD0290E00E9475042A98C3
:1008600084EB95E00895682F439882E00E94DC05B0
:10087000439A0895EF92FF920F931F937B018C018F
:10088000439882E066E00E94DC05212F332744274D
:10089000552782E0622F0E94DC05980144275527E6
:1008A00082E0622F0E94DC055527412F302F2F2D2B
:1008B00082E0622F0E94DC0582E06E2D0E94DC0542
:1008C000439A1F910F91FF90EF9008951F93982FD7
:1008D000162F439882E0692F0E94DC0582E0612F89
:1008E0000E94DC05439A1F91089584309105F1F030
:1008F000853091054CF48230910591F0833091055B
:1009000094F4019751F406C08530910591F0089751
:1009100024F411C060E081E010C060E080E00DC010
:1009200060E082E00AC060E084E007C061E085E04A
:1009300004C062E001C063E087E0660F660F660FE7
:10094000682B88E20E946604089580E060E00E94BF
:1009500066040895DF92EF92FF920F931F93CF9357
:10096000DF937C01162FD42E439882E060EE0E9424
:10097000DC0582E065E00E94DC05C0E0D0E0012FEC
:1009800010E008C0F701EC0FFD1F82E060810E94BB
:10099000DC052196C017D107ACF3439A8FE06D2D8B
:1009A0000E946604439882E060ED0E94DC05439A51
:1009B000DF91CF911F910F91FF90EF90DF900895FD
:1009C0001F934398682F606482E00E94DC0582E0F8
:1009D0000E94D30582E00E94D40582E00E94D205E5
:1009E00082E00E94D30582E00E94D605182F439A28
:1009F00082E00E94D50582E00E94D205812F1F91DE
:100A00000895EF92FF920F931F93CF93DF937C0192
:100A1000162F80EF0E943304C0E0D0E0012F10E0D9
:100A200008C085E00E94E004F701EC0FFD1F808301
:100A30002196C017D107ACF3DF91CF911F910F9191
:100A4000FF90EF9008950895282F6115710581F0AA
:100A50007093AF026093AE02809184009091850004
:100A6000220F280F27BD80916F00826080936F0056
:100A70000895EFE6F0E080818D7F80831092AF02D1
:100A80001092AE0208951F920F920FB60F9211248A
:100A90002F933F934F935F936F937F938F939F9386
:100AA000AF93BF93EF93FF93E091AE02F091AF024B
:100AB000309789F009959C01009769F08091880032
:100AC00090918900220F331F820F931F909389000A
:100AD0008093880009C080916F008D7F80936F00A4
:100AE0001092AF021092AE02FF91EF91BF91AF91C1
:100AF0009F918F917F916F915F914F913F912F9136
:100B00000F900FBE0F901F901895EF92FF920F93CA
:100B10001F93CF93DF937A018B01EC012FEF3FEF0F
:100B20004FEF5FEF2DC0888190E0A0E0B0E0282774
:100B300039274A275B27E0E0F0E0DA01C901B695E2
:100B4000A79597958795217030704070507050959B
:100B50004095309521953F4F4F4F5F4F207233782E
:100B6000487B5D7E282739274A275B273196E83066
:100B7000F10519F721960894E108F1080109110916
:100B8000E114F1040105110571F6209530954095A9
:100B90005095B901CA01DF91CF911F910F91FF903C
:100BA000EF90089508950895089508951EBC0DB41A
:100BB00007FEFDCF8EB508956EBD0DB407FEFDCFC7
:100BC00080E00895EEE6F2E020E030E08191280F29
:100BD000311D82E0ED37F807C9F7822F81958083B8
:100BE00008954F925F926F927F928F929F92AF92F1
:100BF000BF92CF92DF92EF92FF920F931F934A0121
:100C00005B0128013901E82FF0E0EE0FFF1FEC57E0
:100C1000FD4F60817181882777FD8095982FA50110
:100C200094010E949F0820E137E240E050E00E94DA
:100C3000F408D301C2018C199D09AE09BF09240D26
:100C4000351D461D571D281739074A075B0714F441
:100C50009C01AD01C40CD51CE61CF71C2C153D05F0
:100C60004E055F0534F0A701960121503040404009
:100C70005040C9011F910F91FF90EF90DF90CF90EE
:100C8000BF90AF909F908F907F906F905F904F90AC
:100C90000895EF92FF920F931F930E9439050E94CF
:100CA000A50461E470E180E295E50E943A0481E0E8
:100CB00063E60E94660483E06FE00E9466048DE0B4
:100CC00065E00E9466048EE064E00E94660485E1AF
:100CD0006BE20E94660488E162E60E94660489E194
:100CE00060E80E9466048CE16AE00E9466048FE17D
:100CF00067E00E94660480E267E10E94660489E280
:100D000067E40E94660480EA0E94330482E061E0A6
:100D10000E94660482E00E94E00482E00E94E004F7
:100D20008823D9F782E20E94E00484E20E94E00472
:100D30008FE060E00E94660482E062E00E94660448
:100D400082E00E94E0048823D9F785E20E94E00453
:100D50008FE060EA0E94660482E062E00E9466041E
:100D600082E00E94E0048823D9F785E20E94E00433
:100D70008091AD0290E00E94750480EA0E943304E5
:100D80000E9460097C010E946009AA2797FDA09536
:100D9000BA2FDC01992788270027F7FC0095102F30
:100DA0008E0D9F1DA01FB11F80937F029093800224
:100DB000A0938102B09382020E9460096CE070E00F
:100DC0000E94BE08FC01EB5CFD4F808180937E0297
:100DD0006FEF7FEF8FEF9FEF0E942305109283024A
:100DE00080E197E268E177E00E9424051F910F916E
:100DF000FF90EF900895833061F0843028F48823C9
:100E000059F0823059F408C0863070F08A3031F4DD
:100E100008C021E030E00AC00E94490620E030E02E
:100E200005C02FEF3FEF02C024E030E0C901089574
:100E3000CF92DF92EF92FF920F931F9380918302E4
:100E4000873009F4D9C0883058F4833009F48EC053
:100E5000843018F48130D9F489C08530C1F486C05B
:100E6000803809F46DC0813830F4883009F4EAC064
:100E70008D3050F4ECC0843809F462C0863809F42F
:100E80005FC0823809F45CC020E030E050C1863099
:100E900011F489E005C0843011F481E001C08F5F56
:100EA00080936E0280917E0280936F0220917F0278
:100EB000309180024091810250918202852F9927C2
:100EC000AA27BB2780937002CA01AA27BB27809359
:100ED0007102BB27A52F942F832F8093720220933A
:100EE000730288E08093740284EE809375028AEE28
:100EF000809376028EE98093770280E58093780272
:100F00008BED8093790284E080937A0286E280936D
:100F10007B0289E780937C020E94E20580EA0E94BE
:100F200033048EE692E060E140917E020E94AA04C2
:100F30008091830280688093830228EB3BE0F7C0B6
:100F400000E010E080E00E94E00480FF05C00F5F39
:100F50001F4F04311105B1F780EC0E9433048091DA
:100F600083028F778F5F8093830207C080E00E94A7
:100F7000E00480FF05C01092830224E931E1D7C06C
:100F80008EE692E060E10E940105809183028F5F0E
:100F900080938302843069F56091700270E080E094
:100FA00090E0962F8827772766272091710230E0FE
:100FB00040E050E0A90133272227622B732B842BBA
:100FC000952B2091730230E040E050E0622B732BB0
:100FD000842B952B2091720230E040E050E0542F9A
:100FE000432F322F2227622B732B842B952B0E94A9
:100FF0003A0424EF31E09BC080E00E94E00480FDD1
:101000001BC08EE692E060E10E94010580916F02B4
:10101000893091F488E0809383028FE16FE00E9431
:10102000660460E070E080E090E00E94230510928A
:10103000000120E63DE67BC086E08093830228E93C
:101040003AE375C08091AD0290E00E94750480E1A2
:10105000EEE6F2E0DF011D928A95E9F780E28093E7
:101060006E0282E040E850E060E070E000E810E0EE
:1010700020E030E0E0E8CE2ED12CE12CF12C0E94D3
:10108000F1058093700283E040E850E060E070E09A
:1010900000E810E020E030E00E94F10580958093A8
:1010A000720281E040E850E060E070E000E810E0AB
:1010B00020E030E00E94F10580958093740280E08A
:1010C00040E850E060E070E000E810E020E030E050
:1010D0000E94F1058093760282E08093770284E695
:1010E000809378028BED8093790284E080937A027A
:1010F00086E280937B0289E780937C020E94E2056E
:101100008091830240917E028C3009F44D5D8EE621
:1011100092E060E10E94AA04809183028C3011F475
:1011200088E001C08F5F8093830220E137E2C9012C
:101130001F910F91FF90EF90DF90CF900895629FE5
:10114000D001739FF001829FE00DF11D649FE00DBF
:10115000F11D929FF00D839FF00D749FF00D659F20
:10116000F00D9927729FB00DE11DF91F639FB00D1F
:10117000E11DF91FBD01CF0111240895AA1BBB1B5E
:1011800051E107C0AA1FBB1FA617B70710F0A61B87
:10119000B70B881F991F5A95A9F780959095BC01A8
:1011A000CD010895A1E21A2EAA1BBB1BFD010DC0A3
:1011B000AA1FBB1FEE1FFF1FA217B307E407F50707
:1011C00020F0A21BB30BE40BF50B661F771F881FE3
:1011D000991F1A9469F760957095809590959B0179
:1011E000AC01BD01CF01089597FB092E05260ED055
:1011F00057FD04D0D7DF0AD0001C38F45095409535
:10120000309521953F4F4F4F5F4F0895F6F79095DA
:101210008095709561957F4F8F4F9F4F0895A0E007
:10122000B0E0E5E1F9E00C94B109EC01A880B980E7
:10123000CA80DB80A114B104C104D10441F484E26A
:10124000A82E89EDB82E8BE5C82E87E0D82EC601D2
:10125000B5012DE133EF41E050E00E94F40827EAA8
:1012600031E440E050E00E949F087B018C01C60100
:10127000B5012DE133EF41E050E00E94F408CA01CE
:10128000B9012CEE34EF4FEF5FEF0E949F086E0D17
:101290007F1D801F911F97FF04C0615070408040E8
:1012A0009048688379838A839B839B013F77C90138
:1012B000CDB7DEB7EAE00C94CD090E940F0908957E
:1012C00081E492E00E940F090895A0E0B0E08093CD
:1012D000410290934202A0934302B09344020895C6
:1012E000F999FECF92BD81BDF89A992780B50895EE
:1012F000A6E1B0E044E050E00C949B09262FF99958
:10130000FECF1FBA92BD81BD20BD0FB6F894FA9AE8
:10131000F99A0FBE01960895242F0E947F09252F68
:101320000E947F090C9494090E947E09272F0C9437
:101330007F09DC01CB01FC01F999FECF06C0F2BDAB
:10134000E1BDF89A319600B40D9241505040B8F783
:1013500008952F923F924F925F926F927F928F9259
:101360009F92AF92BF92CF92DF92EF92FF920F9334
:101370001F93CF93DF93CDB7DEB7CA1BDB0B0FB63E
:10138000F894DEBF0FBECDBF09942A8839884888FB
:101390005F846E847D848C849B84AA84B984C88491
:1013A000DF80EE80FD800C811B81AA81B981CE0F88
:1013B000D11D0FB6F894DEBF0FBECDBFED0108956D
:0413C000F894FFCFCF
:1013C4000101FF42001400FFFF000000000121059D
:1013D40000509E4B0002162B1200628080000A32DD
:1013E400C30F13C300FF00003B00174780030145F0
:1013F4001800010FFF0A5A14641E6E287832823CCA
:101404008C469650A0A05096468C3C823278286E2A
:101414001E64145A0A0A5A50A0146446961E6E3C5E
:101424008C28783282823278288C3C6E1E964664F0
:1014340014A0505A0A28780A5A50A014641E6E3C0C
:101444008C32824696964682328C3C6E1E6414A080
:10145400505A0A782850A028780A5A1E6E3C8C32BA
:1014640082469614646414964682328C3C6E1E5AEC
:101474000A7828A05050A046963C8C28780A5A3204
:10148400821E6E146464146E1E82325A0A78288C8A
:101494003C9646A05046963C8C50A028780A5A1E8A
:1014A4006E32821464641482326E1E5A0A7828A042
:1014B400508C3C964646960A5A3C8C146450A0289C
:1014C400781E6E328282326E1E7828A05064148C8C
:1014D4003C5A0A964646960A5A50A03C8C28781ED6
:1014E4006E32821464641482326E1E78288C3CA09E
:1014F400505A0A9646141E28323C46505A646E7856
:061504008201000000005E
:00000001FF
