:100000000C9434000C9451000C9451000C94510049
:100010000C9451000C9451000C9451000C9451001C
:100020000C9451000C9451000C9453000C947005E6
:100030000C9451000C9451000C9451000C945100FC
:100040000C9451000C9451000C9451000C945100EC
:100050000C9451000C9451000C9451000C945100DC
:100060000C9451000C94510011241FBECFEFD8E026
:10007000DEBFCDBF12E0A0E0B1E0E4E2F4E102C0F7
:1000800005900D92A634B107D9F712E0A6E4B2E0CC
:1000900001C01D92A13BB107E1F70E941F010C9422
:1000A000100A0C9400001F920F920FB60F921124A9
:1000B0002F933F934F935F936F937F938F939F9370
:1000C000AF93BF93EF93FF93299A80914A02909147
:1000D0004B02892B41F4809184009091850090938C
:1000E0004B0280934A028091860090918700909302
:1000F000500280934F022091480230914902AC0196
:10010000421B530B9A0150934E0240934D02909321
:1001100049028093480280914602803108F079C0FC
:1001200057E12137350754F0109246021092010131
:10013000809147028F5F809347026FC085E0283728
:10014000380734F41092460281E08093010165C0C3
:1001500080910101882309F060C0C90195958795B8
:1001600090934E0280934D02815D974034F080ED74
:1001700097E090934E0280934D0280914D029091B2
:100180004E02885E934034F488EE93E090934E02E2
:1001900080934D0260914D0270914E02882777FD49
:1001A0008095982F24E130E040E050E00E94CF0895
:1001B0009B01AC01205335474040504080914C0298
:1001C0008823C1F080914602813051F0813018F0CF
:1001D000823081F40AC030938A022093890213C0CE
:1001E00030938602209385020EC0309388022093BC
:1001F000870209C0E0914602F0E0EE0FFF1FEB57C7
:10020000FD4F31832083809146028F5F80934602A9
:1002100004C010924602109201012998FF91EF91BB
:10022000BF91AF919F918F917F916F915F914F910E
:100230003F912F910F900FBE0F901F901895EF9246
:10024000FF920F931F9384B714BE88E10FB6F89402
:1002500080936000109260000FBE88E08093A90236
:1002600086E08093AE0210924B0210924A0215B8BB
:100270002098219A229A239A2498259A18B83B9A72
:100280003C98449A3D98459A1BB85098519A529A76
:10029000539A549A559A81E58CBD8DB581608DBD78
:1002A00082E88093810080E280936F00789480914F
:1002B00047028531E0F3809181008F778093810040
:1002C00080914A0290914B020E94950985E090E04E
:1002D0000E94A009182F86E090E00E94A00918173C
:1002E00061F50E9490097C010E949009AC0166278B
:1002F00057FD6095762FBA01552744270027F7FC54
:100300000095102F4E0D5F1D601F711F4093AA02B4
:100310005093AB026093AC027093AD0280E090E02A
:100320000E94BC0985E090E064E30E94AE0986E08B
:1003300090E064EA0E94AE090CC080E090E00E9468
:10034000A8096093AA027093AB028093AC029093C9
:10035000AD028091AA029091AB02A091AC02B09143
:10036000AD02803A50F08F7080698093AA0290931A
:10037000AB02A093AC02B093AD02409193025091B6
:1003800094025093A6024093A5028AE194EE20E0E5
:1003900003C0865D944F2F5F84179507D4F32330F5
:1003A000D1F0243028F4213071F0223078F407C0E5
:1003B0002530E1F02530A0F0263011F51CC0109258
:1003C000A8025B9A1DC02093A80219C082E0809306
:1003D000A8025A9A15C02093A8025B9A5C9AFFCF94
:1003E00084E08093A8025C9A5A9AFFCF2093A802D7
:1003F0005A9A5B9AFFCF2093A8025A9A5B9A5C9A0A
:100400008091A802863009F038C020E931E0359BA0
:1004100017C088EB9BE0F9013197F1F70197D9F705
:100420005A985B985C98359B0BC088EB9BE0F90170
:100430003197F1F70197D9F75A9A5B9A5C9AE7CF0F
:100440005A9A5B9A5C9A359BFECF85E090E06FEFFD
:100450000E94AE0986E090E06FEF0E94AE09F99924
:10046000FECF2CE088E190E00FB6F894A895809339
:1004700060000FBE20936000FFCF823019F40E940D
:100480002B075D9A8091A802823050F4359905C0FF
:1004900082E00E94E1035D9A03C080E00E94E103D4
:1004A000349903C081E080934C028091000188233D
:1004B000E1F75D9881E08093010180918600909141
:1004C0008700909349028093480280918100806860
:1004D00080938100FFCFEF92FF920F931F93CF93F2
:1004E000DF93882311F485E501C08AEA80935802DE
:1004F0008091510290915202A0915302B091540206
:1005000080935902292F3A2F4B2F552720935A02B7
:100510009D014427552720935B028B2F9927AA27FB
:10052000BB2780935C028091A902E82EFF24CDE5D1
:10053000D2E000E010E0E016F1061CF41882198207
:1005400029C0F801EE0FFF1FEB57FD4F608171814D
:10055000882777FD8095982F21EF31E040E050E02B
:100560000E94CF0820E137E240E050E00E942409D9
:1005700027523A4F4F4F5F4F57FF04C020E030E003
:1005800040E050E02883BB2757FDBA95A52F942F54
:10059000832F89830F5F1F4F22960830110559F66C
:1005A0008091A802813021F580918D0290918E0278
:1005B000815991402CF080916402806280936402A2
:1005C00080918F0290919002815991402CF08091FE
:1005D0006202806480936202809191029091920203
:1005E000815991402CF08091620280688093620270
:1005F000DF91CF911F910F91FF90EF900895DF92BF
:10060000EF92FF920F931F93CF93DF93D82E0E9408
:1006100066050E94D2046AE275EC85E794E50E94C3
:100620006704C0E0D0E0FE01EE5FFE4F60816F3FE7
:1006300019F08C2F0E9493042196C333D10599F7AA
:1006400080EA0E94600482E061E00E94930482E0FC
:100650000E940D0582E00E940D058823D9F782E2F1
:100660000E940D0584E263E10E94930486E26BE33D
:100670000E9493048FE060E00E94930482E062E0B5
:100680000E94930482E00E940D058823D9F785E239
:100690000E940D058FE060EA0E94930482E062E010
:1006A0000E94930482E00E940D058823D9F785E219
:1006B0000E940D0585E268E00E94930480EA0E9492
:1006C00060048091AA029091AB02A091AC02B0911B
:1006D000AD020097A105B10549F0809351029093B6
:1006E0005202A0935302B093540224C089EA92E0CC
:1006F00046E050E060E070E00E94B2057B018C01B2
:1007000087EA92E041E050E060E070E00E94B205CC
:100710006E0D7F1D801F911F2FE332E44FE050E0EC
:100720000E94020960935102709352028093530217
:10073000909354028091510290915202A0915302E1
:10074000B0915402282F2F70209355021092560218
:100750009070A070B07054E0B695A7959795879566
:100760005A95D1F780935702DD2061F48091AA0257
:100770009091AB02A091AC02B091AD020097A1059F
:10078000B10569F484EC99E090936E0280936D0258
:100790006DE270E080E090E00E94500504C010928D
:1007A0006E0210926D0280E699E06FE074E00E94A4
:1007B0005105DF91CF911F910F91FF90EF90DF9046
:1007C00008958330A9F0843028F4882359F08230CA
:1007D00061F41FC0863018F08A3039F41CC028E05C
:1007E00030E01BC080E00E94FF0220E030E015C036
:1007F00020E030E08091AA029091AB02A091AC027F
:10080000B091AD020097A105B10539F421E030E0C7
:1008100004C081E0E8CF2FEF3FEFC90108952A9A85
:1008200080916D0290916E02892BD9F081E00E9437
:100830006B0288E592E065E141E00E94D704809177
:100840006D0290916E02019790936E0280936D02FB
:10085000892B91F560E070E080E090E00E94500507
:100860002BC01092000180E00E946B028091560222
:10087000E0915502F0E064E0EE0FFF1F6A95E1F7AA
:10088000E80FF11DEB5CFE4F408180915702481B41
:1008900088E592E065E10E94D7048091560290E0DD
:1008A00001968F70907080935602882329F480916E
:1008B000AE0290E00E94A2042A9884EB95E008958D
:1008C000682F439882E00E940C06439A0895EF92A5
:1008D000FF920F931F937B018C01439882E066E0A7
:1008E0000E940C06212F33274427552782E0622FD0
:1008F0000E940C0698014427552782E0622F0E942F
:100900000C065527412F302F2F2D82E0622F0E9499
:100910000C0682E06E2D0E940C06439A1F910F91E7
:10092000FF90EF9008951F93982F162F439882E021
:10093000692F0E940C0682E0612F0E940C06439AE8
:100940001F91089584309105F1F0853091054CF4A4
:100950008230910591F08330910594F4019751F420
:1009600006C08530910591F0089724F411C060E02D
:1009700081E010C060E080E00DC060E082E00AC06D
:1009800060E084E007C061E085E004C062E001C08F
:1009900063E087E0660F660F660F682B88E20E94AF
:1009A0009304089580E060E00E9493040895DF922C
:1009B000EF92FF920F931F93CF93DF937C01162F3B
:1009C000D42E439882E060EE0E940C0682E065E03F
:1009D0000E940C06C0E0D0E0012F10E008C0F70133
:1009E000EC0FFD1F82E060810E940C062196C0176B
:1009F000D107ACF3439A8FE06D2D0E949304439886
:100A000082E060ED0E940C06439ADF91CF911F9126
:100A10000F91FF90EF90DF9008951F934398682FF8
:100A2000606482E00E940C0682E00E94000682E080
:100A30000E94010682E00E94FF0582E00E940006FB
:100A400082E00E940306182F439A82E00E94020669
:100A500082E00E94FF05812F1F910895EF92FF927F
:100A60000F931F93CF93DF937C01162F80EF0E948B
:100A70006004C0E0D0E0012F10E008C085E00E94D3
:100A80000D05F701EC0FFD1F80832196C017D107DC
:100A9000ACF3DF91CF911F910F91FF90EF900895EC
:100AA0000895282F6115710581F07093B00260934D
:100AB000AF028091840090918500220F280F27BDFE
:100AC00080916F00826080936F000895EFE6F0E000
:100AD00080818D7F80831092B0021092AF020895C2
:100AE0001F920F920FB60F9211242F933F934F93A3
:100AF0005F936F937F938F939F93AF93BF93EF9386
:100B0000FF93E091AF02F091B002309789F0099520
:100B10009C01009769F08091880090918900220FD4
:100B2000331F820F931F909389008093880009C020
:100B300080916F008D7F80936F001092B0021092B1
:100B4000AF02FF91EF91BF91AF919F918F917F91F4
:100B50006F915F914F913F912F910F900FBE0F902A
:100B60001F901895EF92FF920F931F93CF93DF93EF
:100B70007A018B01EC012FEF3FEF4FEF5FEF2DC0BC
:100B8000888190E0A0E0B0E0282739274A275B273A
:100B9000E0E0F0E0DA01C901B695A7959795879551
:100BA000217030704070507050954095309521956F
:100BB0003F4F4F4F5F4F20723378487B5D7E282731
:100BC00039274A275B273196E830F10519F7219636
:100BD0000894E108F10801091109E114F104010583
:100BE000110571F62095309540955095B901CA01CF
:100BF000DF91CF911F910F91FF90EF90089508958D
:100C000008950895089523982B981EBC0DB407FEEF
:100C1000FDCF239A8EB508956EBD0DB407FEFDCFAE
:100C200080E00895EFE6F2E020E030E08191280FC7
:100C3000311D82E0EE37F807C9F7822F8195808356
:100C400008954F925F926F927F928F929F92AF9290
:100C5000BF92CF92DF92EF92FF920F931F934A01C0
:100C60005B0128013901E82FF0E0EE0FFF1FEB5781
:100C7000FD4F60817181882777FD8095982FA501B0
:100C800094010E94CF0820E137E240E050E00E944A
:100C90002409D301C2018C199D09AE09BF09240D95
:100CA000351D461D571D281739074A075B0714F4E1
:100CB0009C01AD01C40CD51CE61CF71C2C153D0590
:100CC0004E055F0534F0A7019601215030404040A9
:100CD0005040C9011F910F91FF90EF90DF90CF908E
:100CE000BF90AF909F908F907F906F905F904F904C
:100CF0000895EF92FF920F931F930E9466050E9442
:100D0000D20461E470E180E295E50E94670481E02D
:100D100063E60E94930483E06FE00E9493048DE0F9
:100D200065E00E9493048EE064E00E94930485E1F4
:100D30006BE20E94930488E162E60E94930489E1D9
:100D400060E80E9493048CE16AE00E9493048FE1C2
:100D500067E00E94930480E267E10E94930489E2C5
:100D600067E40E94930480EA0E94600482E061E0EC
:100D70000E94930482E00E940D0582E00E940D050E
:100D80008823D9F782E20E940D0584E20E940D05B6
:100D90008FE060E00E94930482E062E00E9493048E
:100DA00082E00E940D058823D9F785E20E940D0597
:100DB0008FE060EA0E94930482E062E00E94930464
:100DC00082E00E940D058823D9F785E20E940D0577
:100DD0008091AE0290E00E94A20480EA0E9460042A
:100DE0000E9490097C010E949009AA2797FDA09576
:100DF000BA2FDC01992788270027F7FC0095102FD0
:100E00008E0D9F1DA01FB11F8093800290938102C1
:100E1000A0938202B09383020E9490096CE070E07C
:100E20000E94EE08FC01EB5CFD4F808180937F0205
:100E30006FEF7FEF8FEF9FEF0E94500510928402BB
:100E400080E197E268E477E00E9451051F910F91DD
:100E5000FF90EF900895833061F0843028F4882368
:100E600059F0823059F408C0863070F08A3031F47D
:100E700008C021E030E00AC00E94790620E030E09E
:100E800005C02FEF3FEF02C024E030E0C901089514
:100E9000CF92DF92EF92FF920F931F938091840283
:100EA000873009F4D9C0883058F4833009F48EC0F3
:100EB000843018F48130D9F489C08530C1F486C0FB
:100EC000803809F46DC0813830F4883009F4EAC004
:100ED0008D3050F4ECC0843809F462C0863809F4CF
:100EE0005FC0823809F45CC020E030E050C1863039
:100EF00011F489E005C0843011F481E001C08F5FF6
:100F000080936F0280917F02809370022091800213
:100F1000309181024091820250918302852F99275E
:100F2000AA27BB2780937102CA01AA27BB278093F7
:100F30007202BB27A52F942F832F809373022093D7
:100F4000740288E08093750284EE809376028AEEC4
:100F5000809377028EE98093780280E5809379020E
:100F60008BED80937A0284E080937B0286E280930B
:100F70007C0289E780937D020E94120680EA0E942B
:100F800060048FE692E060E140917F020E94D70406
:100F90008091840280688093840228EB3BE0F7C054
:100FA00000E010E080E00E940D0580FF05C00F5FAB
:100FB0001F4F04311105B1F780EC0E94600480914D
:100FC00084028F778F5F8093840207C080E00E9445
:100FD0000D0580FF05C01092840224E931E1D7C0DD
:100FE0008FE692E060E10E942E05809184028F5F7F
:100FF00080938402843069F56091710270E080E032
:1010000090E0962F8827772766272091720230E09C
:1010100040E050E0A90133272227622B732B842B59
:10102000952B2091740230E040E050E0622B732B4E
:10103000842B952B2091730230E040E050E0542F38
:10104000432F322F2227622B732B842B952B0E9448
:10105000670424EF31E09BC080E00E940D0580FD15
:101060001BC08FE692E060E10E942E058091700225
:10107000893091F488E0809384028FE16FE00E94D0
:10108000930460E070E080E090E00E9450051092D0
:10109000000120E63DE67BC086E08093840228E9DB
:1010A0003AE375C08091AE0290E00E94A20480E114
:1010B000EFE6F2E0DF011D928A95E9F780E2809386
:1010C0006F0282E040E850E060E070E000E810E08D
:1010D00020E030E0E0E8CE2ED12CE12CF12C0E9473
:1010E00021068093710283E040E850E060E070E008
:1010F00000E810E020E030E00E9421068095809317
:10110000730281E040E850E060E070E000E810E049
:1011100020E030E00E94210680958093750280E0F7
:1011200040E850E060E070E000E810E020E030E0EF
:101130000E9421068093770282E08093780284E601
:10114000809379028BED80937A0284E080937B0216
:1011500086E280937C0289E780937D020E941206DA
:101160008091840240917F028C3009F44D5D8FE6BE
:1011700092E060E10E94D704809184028C3011F4E7
:1011800088E001C08F5F8093840220E137E2C901CB
:101190001F910F91FF90EF90DF90CF900895629F85
:1011A000D001739FF001829FE00DF11D649FE00D5F
:1011B000F11D929FF00D839FF00D749FF00D659FC0
:1011C000F00D9927729FB00DE11DF91F639FB00DBF
:1011D000E11DF91FBD01CF0111240895AA1BBB1BFE
:1011E00051E107C0AA1FBB1FA617B70710F0A61B27
:1011F000B70B881F991F5A95A9F780959095BC0148
:10120000CD010895A1E21A2EAA1BBB1BFD010DC042
:10121000AA1FBB1FEE1FFF1FA217B307E407F507A6
:1012200020F0A21BB30BE40BF50B661F771F881F82
:10123000991F1A9469F760957095809590959B0118
:10124000AC01BD01CF01089597FB092E05260ED0F4
:1012500057FD04D0D7DF0AD0001C38F450954095D4
:10126000309521953F4F4F4F5F4F0895F6F790957A
:101270008095709561957F4F8F4F9F4F0895A0E0A7
:10128000B0E0E5E4F9E00C94E109EC01A880B98054
:10129000CA80DB80A114B104C104D10441F484E20A
:1012A000A82E89EDB82E8BE5C82E87E0D82EC60172
:1012B000B5012DE133EF41E050E00E94240927EA17
:1012C00031E440E050E00E94CF087B018C01C60170
:1012D000B5012DE133EF41E050E00E942409CA013D
:1012E000B9012CEE34EF4FEF5FEF0E94CF086E0D87
:1012F0007F1D801F911F97FF04C061507040804088
:101300009048688379838A839B839B013F77C901D7
:10131000CDB7DEB7EAE00C94FD090E943F090895BD
:1013200081E492E00E943F090895A0E0B0E080933C
:10133000410290934202A0934302B0934402089565
:10134000F999FECF92BD81BDF89A992780B508958D
:10135000A6E1B0E044E050E00C94CB09262FF999C7
:10136000FECF1FBA92BD81BD20BD0FB6F894FA9A88
:10137000F99A0FBE01960895242F0E94AF09252FD8
:101380000E94AF090C94C4090E94AE09272F0C9447
:10139000AF09DC01CB01FC01F999FECF06C0F2BD1B
:1013A000E1BDF89A319600B40D9241505040B8F723
:1013B00008952F923F924F925F926F927F928F92F9
:1013C0009F92AF92BF92CF92DF92EF92FF920F93D4
:1013D0001F93CF93DF93CDB7DEB7CA1BDB0B0FB6DE
:1013E000F894DEBF0FBECDBF09942A88398848889B
:1013F0005F846E847D848C849B84AA84B984C88431
:10140000DF80EE80FD800C811B81AA81B981CE0F27
:10141000D11D0FB6F894DEBF0FBECDBFED0108950C
:04142000F894FFCF6E
:101424000101FF42001400FFFF000000000121053C
:1014340000509E4B0002162B1200628080000A327C
:10144400C30F13C300FF00003B001747800301458F
:101454001800010FFF0A5A14641E6E287832823C69
:101464008C469650A0A05096468C3C823278286ECA
:101474001E64145A0A0A5A50A0146446961E6E3CFE
:101484008C28783282823278288C3C6E1E96466490
:1014940014A0505A0A28780A5A50A014641E6E3CAC
:1014A4008C32824696964682328C3C6E1E6414A020
:1014B400505A0A782850A028780A5A1E6E3C8C325A
:1014C40082469614646414964682328C3C6E1E5A8C
:1014D4000A7828A05050A046963C8C28780A5A32A4
:1014E400821E6E146464146E1E82325A0A78288C2A
:1014F4003C9646A05046963C8C50A028780A5A1E2A
:101504006E32821464641482326E1E5A0A7828A0E1
:10151400508C3C964646960A5A3C8C146450A0283B
:10152400781E6E328282326E1E7828A05064148C2B
:101534003C5A0A964646960A5A50A03C8C28781E75
:101544006E32821464641482326E1E78288C3CA03D
:10155400505A0A9646141E28323C46505A646E78F5
:06156400820100000000FE
:00000001FF
